:100000000C945D000C9485000C9485000C94850084
:100010000C9485000C9485000C9485000C9485004C
:100020000C9485000C9485000C9485000C9485003C
:100030000C9485000C9485000C9485000C9485002C
:100040000C9419030C9485000C94E7020C94C102E3
:100050000C9485000C9485000C9485000C9485000C
:100060000C9485000C9485000000000024002700FB
:100070002A0000000000250028002B0004040404CE
:100080000404040402020202020203030303030342
:10009000010204081020408001020408102001021F
:1000A00004081020000000080002010000030407FB
:1000B0000000000000000000970411241FBECFEFD5
:1000C000D8E0DEBFCDBF11E0A0E0B1E0E6EEF9E0A0
:1000D00002C005900D92A032B107D9F721E0A0E24D
:1000E000B1E001C01D92A83CB207E1F710E0CDE5F8
:1000F000D0E004C02197FE010E94E604CC35D10770
:10010000C9F70E9463030C94F1040C940000CF9291
:10011000DF92EF92FF920F931F93CF93DF936C01C7
:100120007A018B01C0E0D0E0CE15DF0589F0D8015F
:100130006D918D01D601ED91FC910190F081E02D42
:10014000C6010995892B11F47E0102C02196ECCFDE
:10015000C701DF91CF911F910F91FF90EF90DF903A
:10016000CF900895FC01918D828D981761F0828D5A
:10017000DF01A80FB11D5D968C91928D9F5F9F73DB
:10018000928F90E008958FEF9FEF0895FC01918D7D
:10019000828D981731F0828DE80FF11D858D90E0EA
:1001A00008958FEF9FEF0895FC01918D228D892F87
:1001B00090E0805C9F4F821B91098F73992708956F
:1001C0008BE291E00E94D40021E0892B09F420E029
:1001D000822F0895FC01848DDF01A80FB11DA35A61
:1001E000BF4F2C91848D90E001968F739927848F57
:1001F000A689B7892C93A089B1898C9180648C934E
:10020000938D848D981306C00288F389E02D808138
:100210008F7D80830895EF92FF920F931F93CF936A
:10022000DF93EC0181E0888F9B8D8C8D981305C046
:10023000E889F989808185FD24C0F62E0B8D10E0B8
:100240000F5F1F4F0F731127E02E8C8DE8120CC02B
:100250000FB607FCFACFE889F989808185FFF5CFD1
:10026000CE010E94EA00F1CF8B8DFE01E80FF11D57
:10027000E35AFF4FF0820B8FEA89FB89808180620D
:1002800007C0EE89FF896083E889F98980818064ED
:10029000808381E090E0DF91CF911F910F91FF90DB
:1002A000EF900895CF93DF93EC01888D8823C9F0F8
:1002B000EA89FB89808185FD05C0A889B9898C916F
:1002C00086FD0FC00FB607FCF5CF808185FFF2CF0A
:1002D000A889B9898C9185FFEDCFCE010E94EA00F3
:1002E000E7CFDF91CF91089580E090E0892B29F04E
:1002F0000E94E00081110C940000089590E0FC0140
:10030000EC55FF4F3491FC01E057FF4F2491FC0165
:10031000E458FF4FE491EE2309F43BC0332339F155
:10032000333091F038F43130A9F0323001F584B532
:100330008F7D12C0373091F03830A1F03430B9F4ED
:10034000809180008F7D03C0809180008F778093A3
:1003500080000DC084B58F7784BD09C08091B00046
:100360008F7703C08091B0008F7D8093B000F0E064
:10037000EE0FFF1FEE58FF4FA591B4918FB7F89481
:10038000EC91611103C020952E2301C02E2B2C93DC
:100390008FBF0895CF93DF9390E0FC01E057FF4FAC
:1003A0002491FC01E458FF4F8491882361F190E08F
:1003B000880F991FFC01E859FF4FC591D491FC01AA
:1003C000EE58FF4FA591B491611109C09FB7F89401
:1003D0008881209582238883EC912E230BC0623084
:1003E00061F49FB7F8943881822F809583238883A6
:1003F000EC912E2B2C939FBF06C08FB7F894E88109
:100400002E2B28838FBFDF91CF9108953FB7F894AB
:100410008091250190912601A0912701B09128019A
:1004200026B5A89B05C02F3F19F00196A11DB11D4F
:100430003FBFBA2FA92F982F8827820F911DA11D8A
:10044000B11DBC01CD0142E0660F771F881F991FC7
:100450004A95D1F70895009769F0FC0101900020BA
:10046000E9F73197AF01481B590BBC018BE291E0D2
:100470000C94870080E090E008958F929F92AF9255
:10048000BF92CF92DF92EF92FF920F931F93CF9381
:10049000DF93CDB7DEB7A1970FB6F894DEBF0FBEDE
:1004A000CDBF6C01990FEE08FF08F7FE31C0E09157
:1004B0002B01F0912C010190F081E02D6DE28BE297
:1004C00091E009958C0122273327A9012C193D09B8
:1004D0004E095F0919A2CE0181967C019AE0892E0E
:1004E000912CA12CB12CCA01B901A50194010E9443
:1004F000C404605DF70162937F0121153105410558
:10050000510589F7CF010E942B02080F191F1EC049
:10051000A701960119A28E010F5D1F4F8AE0C82E18
:10052000D12CE12CF12CCA01B901A70196010E943E
:10053000C404605DF80162938F0121153105410506
:10054000510589F7CF010E942B028C0180E191E0D7
:100550000E942B02800F911FA1960FB6F894DEBF68
:100560000FBECDBFDF91CF911F910F91FF90EF9004
:10057000DF90CF90BF90AF909F908F9008950E9492
:10058000EC041F920F920FB60F9211242F933F93FA
:100590004F935F936F937F938F939F93AF93BF938B
:1005A000EF93FF938BE291E00E94EA00FF91EF91BD
:1005B000BF91AF919F918F917F916F915F914F917B
:1005C0003F912F910F900FBE0F901F9018951F9283
:1005D0000F920FB60F9211242F938F939F93EF9347
:1005E000FF93E0913B01F0913C018081E09141015A
:1005F000F091420182FD12C09081809144018F5F91
:100600008F7320914501821751F0E0914401F0E091
:10061000E55DFE4F958F8093440101C08081FF917D
:10062000EF919F918F912F910F900FBE0F901F9080
:1006300018951F920F920FB60F9211242F933F938C
:100640008F939F93AF93BF9380912101909122014B
:10065000A0912301B09124013091200123E0230FC8
:100660002D3720F40196A11DB11D05C026E8230FEA
:100670000296A11DB11D209320018093210190932A
:100680002201A0932301B093240180912501909130
:100690002601A0912701B09128010196A11DB11D4D
:1006A0008093250190932601A0932701B093280100
:1006B000BF91AF919F918F913F912F910F900FBE5E
:1006C0000F901F901895789484B5826084BD84B58E
:1006D000816084BD85B5826085BD85B5816085BD3D
:1006E00080916E00816080936E00109281008091F5
:1006F000810082608093810080918100816080937D
:100700008100809180008160809380008091B100A1
:1007100084608093B1008091B00081608093B000CC
:1007200080917A00846080937A0080917A00826060
:1007300080937A0080917A00816080937A00809122
:100740007A00806880937A001092C10060E081E0B6
:100750000E94CA0161E087E00E94CA01E0913B016A
:10076000F0913C0182E08083E0913701F091380103
:100770001082E0913901F0913A018FEC8083109260
:100780004301E0913F01F091400186E08083E091D8
:100790003D01F0913E01808180618083E0913D01C7
:1007A000F0913E01808188608083E0913D01F0916D
:1007B0003E01808180688083E0913D01F0913E019F
:1007C00080818F7D808391E4992E28EEA22E23E0F4
:1007D000B22E0BEA10E090927C0080917A00806447
:1007E00080937A0080917A0086FDFCCF809178001A
:1007F0002091790090E0922B90932A018093290117
:1008000083E191E00E942B028091290190912A01BD
:100810000E943D028BE191E00E942B028091290110
:1008200090912A010E943D028091290190912A0114
:10083000E501C81BD90B61E087E00E94CA0120973F
:1008400011F460E004C0CF3FD10529F461E087E0F6
:100850000E947E0142C0F80184918330F9F048F48F
:100860008130B9F08230A1F584B5806284BDC8BD05
:1008700034C08730E9F0883019F1843049F580912F
:100880008000806280938000D0938B00C0938A00A8
:1008900024C084B5806884BDC7BD1FC0809180001E
:1008A000806880938000D0938900C093880015C031
:1008B0008091B00080688093B000C093B3000DC0F9
:1008C0008091B00080628093B000C093B40005C0F6
:1008D000C038D1050CF0BACFB4CF0E9406022B016C
:1008E0003C018CE2C82EDD24D394E12CF12C0E9433
:1008F0000602DC01CB0184199509A609B709883ED7
:100900009340A105B10558F0F1E0CF1AD108E108F4
:10091000F10828EE420E23E0521E611C711CC11426
:10092000D104E104F10419F70E94740154CFEBE201
:10093000F1E01382128288EE93E0A0E0B0E08483BD
:100940009583A683B78384E091E09183808385ECCF
:1009500090E09587848784EC90E09787868780EC89
:1009600090E0918B808B81EC90E0938B828B82EC7A
:1009700090E0958B848B86EC90E0978B868B118E24
:10098000128E138E148E0895A1E21A2EAA1BBB1B81
:10099000FD010DC0AA1FBB1FEE1FFF1FA217B3074B
:1009A000E407F50720F0A21BB30BE40BF50B661F61
:1009B000771F881F991F1A9469F760957095809525
:1009C00090959B01AC01BD01CF010895EE0FFF1F73
:1009D0000590F491E02D099481E090E0F8940C9456
:0609E000F104F894FFCFC2
:1009E600000000000B018700D400B200C6005201CF
:1009F6000D0A004F64637A79743A004F9C3A0000FE
:00000001FF
